{
  "address": "0x9be804806467531CB62F2D161A6C4Ef29fD26a62",
  "abi": [
    {
      "inputs": [
        {
          "internalType": "address",
          "name": "exampleExternalContractAddress",
          "type": "address"
        }
      ],
      "stateMutability": "nonpayable",
      "type": "constructor"
    },
    {
      "inputs": [],
      "name": "Staker__AlreadyCompleted",
      "type": "error"
    },
    {
      "inputs": [],
      "name": "Staker__DeadlineHasNotPassedYet",
      "type": "error"
    },
    {
      "inputs": [],
      "name": "Staker__DeadlineReached",
      "type": "error"
    },
    {
      "inputs": [],
      "name": "Staker__NoMoreCallsOnExecute",
      "type": "error"
    },
    {
      "inputs": [],
      "name": "Staker__NotEnoughEthSent",
      "type": "error"
    },
    {
      "inputs": [],
      "name": "Staker__UnavailableWithdraw",
      "type": "error"
    },
    {
      "inputs": [],
      "name": "Staker__WithdrawFailed",
      "type": "error"
    },
    {
      "anonymous": false,
      "inputs": [
        {
          "indexed": false,
          "internalType": "uint256",
          "name": "",
          "type": "uint256"
        }
      ],
      "name": "ExternalContractCompleted",
      "type": "event"
    },
    {
      "anonymous": false,
      "inputs": [
        {
          "indexed": false,
          "internalType": "address",
          "name": "",
          "type": "address"
        },
        {
          "indexed": false,
          "internalType": "uint256",
          "name": "",
          "type": "uint256"
        }
      ],
      "name": "Stake",
      "type": "event"
    },
    {
      "anonymous": false,
      "inputs": [
        {
          "indexed": false,
          "internalType": "address",
          "name": "",
          "type": "address"
        }
      ],
      "name": "WithdrawSuccess",
      "type": "event"
    },
    {
      "inputs": [
        {
          "internalType": "address",
          "name": "",
          "type": "address"
        }
      ],
      "name": "balances",
      "outputs": [
        {
          "internalType": "uint256",
          "name": "",
          "type": "uint256"
        }
      ],
      "stateMutability": "view",
      "type": "function"
    },
    {
      "inputs": [],
      "name": "deadline",
      "outputs": [
        {
          "internalType": "uint256",
          "name": "",
          "type": "uint256"
        }
      ],
      "stateMutability": "view",
      "type": "function"
    },
    {
      "inputs": [],
      "name": "exampleExternalContract",
      "outputs": [
        {
          "internalType": "contract ExampleExternalContract",
          "name": "",
          "type": "address"
        }
      ],
      "stateMutability": "view",
      "type": "function"
    },
    {
      "inputs": [],
      "name": "execute",
      "outputs": [],
      "stateMutability": "nonpayable",
      "type": "function"
    },
    {
      "inputs": [],
      "name": "s_canCallExecute",
      "outputs": [
        {
          "internalType": "bool",
          "name": "",
          "type": "bool"
        }
      ],
      "stateMutability": "view",
      "type": "function"
    },
    {
      "inputs": [],
      "name": "s_openForWithdraw",
      "outputs": [
        {
          "internalType": "bool",
          "name": "",
          "type": "bool"
        }
      ],
      "stateMutability": "view",
      "type": "function"
    },
    {
      "inputs": [],
      "name": "stake",
      "outputs": [],
      "stateMutability": "payable",
      "type": "function"
    },
    {
      "inputs": [],
      "name": "threshold",
      "outputs": [
        {
          "internalType": "uint256",
          "name": "",
          "type": "uint256"
        }
      ],
      "stateMutability": "view",
      "type": "function"
    },
    {
      "inputs": [],
      "name": "timeLeft",
      "outputs": [
        {
          "internalType": "uint256",
          "name": "",
          "type": "uint256"
        }
      ],
      "stateMutability": "view",
      "type": "function"
    },
    {
      "inputs": [],
      "name": "withdraw",
      "outputs": [],
      "stateMutability": "nonpayable",
      "type": "function"
    },
    {
      "stateMutability": "payable",
      "type": "receive"
    }
  ],
  "transactionHash": "0x0086784d26f5de4e1d62d72342e1b4fc8d8e2e4e338780592ea707d4e5c93b0f",
  "args": [
    "0x10a413D7F17Fbbf6234D41d8c27cF086ab2FC68c"
  ],
  "numDeployments": 1,
  "solcInputHash": "bd3594dd7684a50fafb0f0f08d9e5d71",
  "bytecode": "0x60c06040526001805461ffff191661010017905534801561001f57600080fd5b5060405161079638038061079683398101604081905261003e91610066565b6001600160601b0319606082901b1660805261005d426203f480610094565b60a052506100b8565b600060208284031215610077578081fd5b81516001600160a01b038116811461008d578182fd5b9392505050565b600082198211156100b357634e487b7160e01b81526011600452602481fd5b500190565b60805160601c60a05161068c61010a6000396000818161011001528181610238015281816102d80152818161030901526104b50152600081816101bc015281816104060152610515015261068c6000f3fe6080604052600436106100955760003560e01c80633ccfd60b116100595780633ccfd60b1461016457806342cde4e81461017957806361461954146101955780639f75f227146101aa578063d2f14ce0146101f657600080fd5b80631300a6d1146100a957806327e235e3146100d157806329dcb0cf146100fe578063313d88be146101325780633a4b66f11461015c57600080fd5b366100a4576100a2610215565b005b600080fd5b3480156100b557600080fd5b506100be6102d4565b6040519081526020015b60405180910390f35b3480156100dd57600080fd5b506100be6100ec3660046105c3565b60006020819052908152604090205481565b34801561010a57600080fd5b506100be7f000000000000000000000000000000000000000000000000000000000000000081565b34801561013e57600080fd5b5060015461014c9060ff1681565b60405190151581526020016100c8565b6100a2610215565b34801561017057600080fd5b506100a2610332565b34801561018557600080fd5b506100be670de0b6b3a764000081565b3480156101a157600080fd5b506100a2610404565b3480156101b657600080fd5b506101de7f000000000000000000000000000000000000000000000000000000000000000081565b6040516001600160a01b0390911681526020016100c8565b34801561020257600080fd5b5060015461014c90610100900460ff1681565b600034116102365760405163c986e79160e01b815260040160405180910390fd5b7f000000000000000000000000000000000000000000000000000000000000000042106102765760405163621f481960e11b815260040160405180910390fd5b3360009081526020819052604081208054349290610295908490610611565b9091555050604080513381523460208201527febedb8b3c678666e7f36970bc8f57abf6d8fa2e828c0da91ea5b75bf68ed101a910160405180910390a1565b60007f000000000000000000000000000000000000000000000000000000000000000042106103035750600090565b61032d427f0000000000000000000000000000000000000000000000000000000000000000610629565b905090565b60015460ff166103555760405163562309f160e11b815260040160405180910390fd5b3360008181526020819052604080822054905190929083908381818185875af1925050503d80600081146103a5576040519150601f19603f3d011682016040523d82523d6000602084013e6103aa565b606091505b50506040513381529091507fcfbbe570cfee40a09f4da7e07d1cb53b2830a9afb6b0019c6336fda1dde39fae9060200160405180910390a1806104005760405163b1e8229160e01b815260040160405180910390fd5b5050565b7f00000000000000000000000000000000000000000000000000000000000000006001600160a01b0316639d9a7fe96040518163ffffffff1660e01b815260040160206040518083038186803b15801561045d57600080fd5b505afa158015610471573d6000803e3d6000fd5b505050506040513d601f19601f8201168201806040525081019061049591906105f1565b156104b25760405162a8d2c960e81b815260040160405180910390fd5b427f00000000000000000000000000000000000000000000000000000000000000008110156104f45760405163a25ddd0f60e01b815260040160405180910390fd5b670de0b6b3a7640000471015610513576001805460ff19168117905550565b7f00000000000000000000000000000000000000000000000000000000000000006001600160a01b031663522e1177476040518263ffffffff1660e01b81526004016000604051808303818588803b15801561056e57600080fd5b505af1158015610582573d6000803e3d6000fd5b50505050507f762ab59e5bf31efa0d160938d6cf254d83713bf3fba34eb0ea3d3a571ce02e34476040516105b891815260200190565b60405180910390a150565b6000602082840312156105d4578081fd5b81356001600160a01b03811681146105ea578182fd5b9392505050565b600060208284031215610602578081fd5b815180151581146105ea578182fd5b6000821982111561062457610624610640565b500190565b60008282101561063b5761063b610640565b500390565b634e487b7160e01b600052601160045260246000fdfea2646970667358221220deb8bd2f736a1dede36469fe45c6286cb6bd942a072bb45a088526ac1418fb5b64736f6c63430008040033",
  "devdoc": {
    "kind": "dev",
    "methods": {},
    "version": 1
  },
  "userdoc": {
    "kind": "user",
    "methods": {},
    "version": 1
  },
  "storageLayout": {
    "storage": [
      {
        "astId": 51,
        "contract": "contracts/Staker.sol:Staker",
        "label": "balances",
        "offset": 0,
        "slot": "0",
        "type": "t_mapping(t_address,t_uint256)"
      },
      {
        "astId": 59,
        "contract": "contracts/Staker.sol:Staker",
        "label": "s_openForWithdraw",
        "offset": 0,
        "slot": "1",
        "type": "t_bool"
      },
      {
        "astId": 62,
        "contract": "contracts/Staker.sol:Staker",
        "label": "s_canCallExecute",
        "offset": 1,
        "slot": "1",
        "type": "t_bool"
      }
    ],
    "types": {
      "t_address": {
        "encoding": "inplace",
        "label": "address",
        "numberOfBytes": "20"
      },
      "t_bool": {
        "encoding": "inplace",
        "label": "bool",
        "numberOfBytes": "1"
      },
      "t_mapping(t_address,t_uint256)": {
        "encoding": "mapping",
        "key": "t_address",
        "label": "mapping(address => uint256)",
        "numberOfBytes": "32",
        "value": "t_uint256"
      },
      "t_uint256": {
        "encoding": "inplace",
        "label": "uint256",
        "numberOfBytes": "32"
      }
    }
  }
}