{
  "address": "0x191867ceBcCE4Dac3963171225590709dA57B291",
  "abi": [
    {
      "inputs": [],
      "name": "Streamer__AlreadyRunningChannel",
      "type": "error"
    },
    {
      "inputs": [],
      "name": "Streamer__ClosingTimeHasNotPassedYet",
      "type": "error"
    },
    {
      "inputs": [],
      "name": "Streamer__InvalidSignatureLength",
      "type": "error"
    },
    {
      "inputs": [],
      "name": "Streamer__NoChannelCreated",
      "type": "error"
    },
    {
      "inputs": [],
      "name": "Streamer__NoChannelToClose",
      "type": "error"
    },
    {
      "inputs": [],
      "name": "Streamer__NotEnoughBalance",
      "type": "error"
    },
    {
      "inputs": [],
      "name": "Streamer__PaymentError",
      "type": "error"
    },
    {
      "anonymous": false,
      "inputs": [
        {
          "indexed": false,
          "internalType": "address",
          "name": "",
          "type": "address"
        }
      ],
      "name": "Challenged",
      "type": "event"
    },
    {
      "anonymous": false,
      "inputs": [
        {
          "indexed": false,
          "internalType": "address",
          "name": "",
          "type": "address"
        }
      ],
      "name": "Closed",
      "type": "event"
    },
    {
      "anonymous": false,
      "inputs": [
        {
          "indexed": false,
          "internalType": "address",
          "name": "",
          "type": "address"
        },
        {
          "indexed": false,
          "internalType": "uint256",
          "name": "",
          "type": "uint256"
        }
      ],
      "name": "Opened",
      "type": "event"
    },
    {
      "anonymous": false,
      "inputs": [
        {
          "indexed": true,
          "internalType": "address",
          "name": "previousOwner",
          "type": "address"
        },
        {
          "indexed": true,
          "internalType": "address",
          "name": "newOwner",
          "type": "address"
        }
      ],
      "name": "OwnershipTransferred",
      "type": "event"
    },
    {
      "anonymous": false,
      "inputs": [
        {
          "indexed": false,
          "internalType": "address",
          "name": "",
          "type": "address"
        },
        {
          "indexed": false,
          "internalType": "uint256",
          "name": "",
          "type": "uint256"
        }
      ],
      "name": "Withdrawn",
      "type": "event"
    },
    {
      "inputs": [],
      "name": "challengeChannel",
      "outputs": [],
      "stateMutability": "nonpayable",
      "type": "function"
    },
    {
      "inputs": [],
      "name": "defundChannel",
      "outputs": [],
      "stateMutability": "nonpayable",
      "type": "function"
    },
    {
      "inputs": [],
      "name": "fundChannel",
      "outputs": [],
      "stateMutability": "payable",
      "type": "function"
    },
    {
      "inputs": [],
      "name": "owner",
      "outputs": [
        {
          "internalType": "address",
          "name": "",
          "type": "address"
        }
      ],
      "stateMutability": "view",
      "type": "function"
    },
    {
      "inputs": [],
      "name": "renounceOwnership",
      "outputs": [],
      "stateMutability": "nonpayable",
      "type": "function"
    },
    {
      "inputs": [
        {
          "internalType": "address",
          "name": "channel",
          "type": "address"
        }
      ],
      "name": "timeLeft",
      "outputs": [
        {
          "internalType": "uint256",
          "name": "",
          "type": "uint256"
        }
      ],
      "stateMutability": "view",
      "type": "function"
    },
    {
      "inputs": [
        {
          "internalType": "address",
          "name": "newOwner",
          "type": "address"
        }
      ],
      "name": "transferOwnership",
      "outputs": [],
      "stateMutability": "nonpayable",
      "type": "function"
    },
    {
      "inputs": [
        {
          "components": [
            {
              "internalType": "uint256",
              "name": "updatedBalance",
              "type": "uint256"
            },
            {
              "components": [
                {
                  "internalType": "bytes32",
                  "name": "r",
                  "type": "bytes32"
                },
                {
                  "internalType": "bytes32",
                  "name": "s",
                  "type": "bytes32"
                },
                {
                  "internalType": "uint8",
                  "name": "v",
                  "type": "uint8"
                }
              ],
              "internalType": "struct Streamer.Signature",
              "name": "sig",
              "type": "tuple"
            }
          ],
          "internalType": "struct Streamer.Voucher",
          "name": "voucher",
          "type": "tuple"
        }
      ],
      "name": "withdrawEarnings",
      "outputs": [],
      "stateMutability": "nonpayable",
      "type": "function"
    }
  ],
  "transactionHash": "0xc130f5ec576c41ec45722c49293453767e42e15c63f189c65f86dc47267c0069",
  "args": [],
  "numDeployments": 1,
  "solcInputHash": "e164d60f56541aaf301b231707e93180",
  "bytecode": "0x608060405234801561001057600080fd5b5061001a3361001f565b61006f565b600080546001600160a01b038381166001600160a01b0319831681178455604051919092169283917f8be0079c531659141344cd1fd0a4f28419497f9722a3daafe3b4186f6b6457e09190a35050565b61084a8061007e6000396000f3fe60806040526004361061007b5760003560e01c806388a025661161004e57806388a02566146100e75780638da5cb5b14610107578063bc8641b11461012f578063f2fde38b1461014457600080fd5b8063157f83ad146100805780631e400d601461008a578063405c649c1461009f578063715018a6146100d2575b600080fd5b610088610164565b005b34801561009657600080fd5b506100886101e1565b3480156100ab57600080fd5b506100bf6100ba366004610769565b6102fb565b6040519081526020015b60405180910390f35b3480156100de57600080fd5b5061008861036e565b3480156100f357600080fd5b50610088610102366004610797565b610382565b34801561011357600080fd5b506000546040516001600160a01b0390911681526020016100c9565b34801561013b57600080fd5b506100886105c6565b34801561015057600080fd5b5061008861015f366004610769565b610641565b3360009081526001602052604090205415610192576040516304698fd760e51b815260040160405180910390fd5b3360008181526001602090815260409182902034908190558251938452908301527fc4b27f09c64550fd678a5b3c3a00f454814732e346e0f1c79d0add8f980346de91015b60405180910390a1565b3360009081526002602052604090205461020e5760405163099e8ebd60e41b815260040160405180910390fd5b33600090815260026020526040902054421161023d576040516304358cd360e21b815260040160405180910390fd5b336000818152600160205260408082205490519192918381818185875af1925050503d806000811461028b576040519150601f19603f3d011682016040523d82523d6000602084013e610290565b606091505b50509050806102b257604051631b0936dd60e11b815260040160405180910390fd5b3360008181526001602090815260408083209290925590519182527f13607bf9d2dd20e1f3a7daf47ab12856f8aad65e6ae7e2c75ace3d0c424a40e8910160405180910390a150565b6001600160a01b038116600090815260026020526040812054158061033757506001600160a01b03821660009081526002602052604090205442115b1561034457506000919050565b6001600160a01b0382166000908152600260205260409020546103689042906107e7565b92915050565b6103766106bf565b6103806000610719565b565b61038a6106bf565b60408051823560208083019190915282518083038201815282840190935282519201919091207f19457468657265756d205369676e6564204d6573736167653a0a3332000000006060830152607c820181905290600090609c0160408051601f1981840301815291905280516020820120909150600060018261041360808801606089016107ae565b604080516000815260208082018084529490945260ff9092168282015291880135606082015290870135608082015260a0016020604051602081039080840390855afa158015610467573d6000803e3d6000fd5b505060408051601f1901516001600160a01b03811660009081526001602052919091205490925086351090506104b057604051638403206160e01b815260040160405180910390fd5b6001600160a01b0381166000908152600160205260408120546104d5908735906107e7565b6001600160a01b0383166000908152600160205260408120805492935083929091906105029084906107e7565b9091555050600080546040516001600160a01b039091169083908381818185875af1925050503d8060008114610554576040519150601f19603f3d011682016040523d82523d6000602084013e610559565b606091505b505090508061057b57604051631b0936dd60e11b815260040160405180910390fd5b604080516001600160a01b0385168152602081018490527f7084f5476618d8e60b11ef0d7d3f06914655adb8793e28ff7f018d4c76d505d5910160405180910390a150505050505050565b336000908152600160205260409020546105f357604051633112fd7560e21b815260040160405180910390fd5b6105fe42601e6107cf565b3360008181526002602090815260409182902093909355519081527f98027b38153f995c4b802a5c7e6365bee3addb25af6b29818c0c304684d8052c91016101d7565b6106496106bf565b6001600160a01b0381166106b35760405162461bcd60e51b815260206004820152602660248201527f4f776e61626c653a206e6577206f776e657220697320746865207a65726f206160448201526564647265737360d01b60648201526084015b60405180910390fd5b6106bc81610719565b50565b6000546001600160a01b031633146103805760405162461bcd60e51b815260206004820181905260248201527f4f776e61626c653a2063616c6c6572206973206e6f7420746865206f776e657260448201526064016106aa565b600080546001600160a01b038381166001600160a01b0319831681178455604051919092169283917f8be0079c531659141344cd1fd0a4f28419497f9722a3daafe3b4186f6b6457e09190a35050565b60006020828403121561077a578081fd5b81356001600160a01b0381168114610790578182fd5b9392505050565b6000608082840312156107a8578081fd5b50919050565b6000602082840312156107bf578081fd5b813560ff81168114610790578182fd5b600082198211156107e2576107e26107fe565b500190565b6000828210156107f9576107f96107fe565b500390565b634e487b7160e01b600052601160045260246000fdfea26469706673582212207fca619a78aaab629b01da3c5a097a8e70c3dd4c376757d1629b1670c46df85264736f6c63430008040033",
  "devdoc": {
    "kind": "dev",
    "methods": {
      "owner()": {
        "details": "Returns the address of the current owner."
      },
      "renounceOwnership()": {
        "details": "Leaves the contract without owner. It will not be possible to call `onlyOwner` functions anymore. Can only be called by the current owner. NOTE: Renouncing ownership will leave the contract without an owner, thereby removing any functionality that is only available to the owner."
      },
      "transferOwnership(address)": {
        "details": "Transfers ownership of the contract to a new account (`newOwner`). Can only be called by the current owner."
      }
    },
    "version": 1
  },
  "userdoc": {
    "kind": "user",
    "methods": {},
    "version": 1
  },
  "storageLayout": {
    "storage": [
      {
        "astId": 7,
        "contract": "contracts/Streamer.sol:Streamer",
        "label": "_owner",
        "offset": 0,
        "slot": "0",
        "type": "t_address"
      },
      {
        "astId": 178,
        "contract": "contracts/Streamer.sol:Streamer",
        "label": "balances",
        "offset": 0,
        "slot": "1",
        "type": "t_mapping(t_address,t_uint256)"
      },
      {
        "astId": 182,
        "contract": "contracts/Streamer.sol:Streamer",
        "label": "canCloseAt",
        "offset": 0,
        "slot": "2",
        "type": "t_mapping(t_address,t_uint256)"
      }
    ],
    "types": {
      "t_address": {
        "encoding": "inplace",
        "label": "address",
        "numberOfBytes": "20"
      },
      "t_mapping(t_address,t_uint256)": {
        "encoding": "mapping",
        "key": "t_address",
        "label": "mapping(address => uint256)",
        "numberOfBytes": "32",
        "value": "t_uint256"
      },
      "t_uint256": {
        "encoding": "inplace",
        "label": "uint256",
        "numberOfBytes": "32"
      }
    }
  }
}